{
  "_format": "hh-sol-artifact-1",
  "contractName": "WishBoard",
  "sourceName": "contracts/WishBoard.sol",
  "abi": [
    {
      "anonymous": false,
      "inputs": [
        {
          "indexed": true,
          "internalType": "uint256",
          "name": "id",
          "type": "uint256"
        },
        {
          "indexed": true,
          "internalType": "address",
          "name": "user",
          "type": "address"
        }
      ],
      "name": "WishCheered",
      "type": "event"
    },
    {
      "anonymous": false,
      "inputs": [
        {
          "indexed": true,
          "internalType": "uint256",
          "name": "id",
          "type": "uint256"
        },
        {
          "indexed": true,
          "internalType": "address",
          "name": "author",
          "type": "address"
        },
        {
          "indexed": false,
          "internalType": "string",
          "name": "aliasName",
          "type": "string"
        },
        {
          "indexed": false,
          "internalType": "string",
          "name": "message",
          "type": "string"
        },
        {
          "indexed": false,
          "internalType": "uint64",
          "name": "createdAt",
          "type": "uint64"
        }
      ],
      "name": "WishCreated",
      "type": "event"
    },
    {
      "inputs": [
        {
          "internalType": "uint256",
          "name": "id",
          "type": "uint256"
        },
        {
          "internalType": "externalEuint32",
          "name": "plusOneExt",
          "type": "bytes32"
        },
        {
          "internalType": "bytes",
          "name": "inputProof",
          "type": "bytes"
        }
      ],
      "name": "cheerWish",
      "outputs": [],
      "stateMutability": "nonpayable",
      "type": "function"
    },
    {
      "inputs": [
        {
          "internalType": "string",
          "name": "message",
          "type": "string"
        },
        {
          "internalType": "string",
          "name": "aliasName",
          "type": "string"
        }
      ],
      "name": "createWish",
      "outputs": [
        {
          "internalType": "uint256",
          "name": "id",
          "type": "uint256"
        }
      ],
      "stateMutability": "nonpayable",
      "type": "function"
    },
    {
      "inputs": [
        {
          "internalType": "uint256",
          "name": "id",
          "type": "uint256"
        }
      ],
      "name": "getCheersHandle",
      "outputs": [
        {
          "internalType": "euint32",
          "name": "",
          "type": "bytes32"
        }
      ],
      "stateMutability": "view",
      "type": "function"
    },
    {
      "inputs": [
        {
          "internalType": "uint256",
          "name": "id",
          "type": "uint256"
        }
      ],
      "name": "getCheersMirror",
      "outputs": [
        {
          "internalType": "uint32",
          "name": "",
          "type": "uint32"
        }
      ],
      "stateMutability": "view",
      "type": "function"
    },
    {
      "inputs": [
        {
          "internalType": "uint256",
          "name": "id",
          "type": "uint256"
        }
      ],
      "name": "getWish",
      "outputs": [
        {
          "internalType": "uint256",
          "name": "wishId",
          "type": "uint256"
        },
        {
          "internalType": "address",
          "name": "author",
          "type": "address"
        },
        {
          "internalType": "string",
          "name": "message",
          "type": "string"
        },
        {
          "internalType": "string",
          "name": "aliasName",
          "type": "string"
        },
        {
          "internalType": "uint64",
          "name": "createdAt",
          "type": "uint64"
        }
      ],
      "stateMutability": "view",
      "type": "function"
    },
    {
      "inputs": [],
      "name": "getWishes",
      "outputs": [
        {
          "components": [
            {
              "internalType": "uint256",
              "name": "id",
              "type": "uint256"
            },
            {
              "internalType": "address",
              "name": "author",
              "type": "address"
            },
            {
              "internalType": "string",
              "name": "message",
              "type": "string"
            },
            {
              "internalType": "string",
              "name": "aliasName",
              "type": "string"
            },
            {
              "internalType": "uint64",
              "name": "createdAt",
              "type": "uint64"
            },
            {
              "internalType": "euint32",
              "name": "cheers",
              "type": "bytes32"
            },
            {
              "internalType": "uint32",
              "name": "cheersMirror",
              "type": "uint32"
            }
          ],
          "internalType": "struct WishBoard.WishItem[]",
          "name": "items",
          "type": "tuple[]"
        }
      ],
      "stateMutability": "view",
      "type": "function"
    },
    {
      "inputs": [],
      "name": "nextWishId",
      "outputs": [
        {
          "internalType": "uint256",
          "name": "",
          "type": "uint256"
        }
      ],
      "stateMutability": "view",
      "type": "function"
    },
    {
      "inputs": [],
      "name": "protocolId",
      "outputs": [
        {
          "internalType": "uint256",
          "name": "",
          "type": "uint256"
        }
      ],
      "stateMutability": "pure",
      "type": "function"
    }
  ],
  "bytecode": "0x608060405260015f55348015610013575f5ffd5b5061018e6100b2604080516080810182525f80825260208201819052918101829052606081019190915250604080516080810182527350157cffd6bbfa2dece204a89ec419c23ef5755d815273cd3ab3bd6bcc0c0bf3e27912a92043e817b1cf69602082015273a02cda4ca3a71d7c46997716f4283aa851c2881291810191909152731364cbbf2cdf5032c47d8226a6f6fbd2afcdacac606082015290565b80517f9e7b61f58c47dc699ac88507c4f5bb9f121c03808c5676a8078fe583e464970080546001600160a01b03199081166001600160a01b039384161790915560208301517f9e7b61f58c47dc699ac88507c4f5bb9f121c03808c5676a8078fe583e46497018054831691841691909117905560408301517f9e7b61f58c47dc699ac88507c4f5bb9f121c03808c5676a8078fe583e46497028054831691841691909117905560608301517f9e7b61f58c47dc699ac88507c4f5bb9f121c03808c5676a8078fe583e46497038054909216921691909117905550565b6114838061019b5f395ff3fe608060405234801561000f575f5ffd5b5060043610610085575f3560e01c80639d7c19bd116100585780639d7c19bd146100f4578063ba4490ba1461011c578063c3bff70814610131578063da1f12ab14610144575f5ffd5b80630153b82b14610089578063202cbac2146100a75780633e9ef738146100cb578063467e62fb146100e1575b5f5ffd5b61009161014c565b60405161009e9190610f52565b60405180910390f35b6100ba6100b5366004611027565b6103d0565b60405161009e95949392919061103e565b6100d35f5481565b60405190815260200161009e565b6100d36100ef366004611027565b6105d1565b610107610102366004611027565b610679565b60405163ffffffff909116815260200161009e565b61012f61012a366004611094565b610727565b005b6100d361013f3660046111af565b6108a4565b6127116100d3565b60605f60015f5461015d9190611228565b90508067ffffffffffffffff81111561017857610178611110565b6040519080825280602002602001820160405280156101fd57816020015b6101ea6040518060e001604052805f81526020015f6001600160a01b0316815260200160608152602001606081526020015f67ffffffffffffffff1681526020015f81526020015f63ffffffff1681525090565b8152602001906001900390816101965790505b50915060015b8181116103cb575f81815260016020818152604092839020835160e08101855281548152928101546001600160a01b03169183019190915260028101805492939192918401916102529061123b565b80601f016020809104026020016040519081016040528092919081815260200182805461027e9061123b565b80156102c95780601f106102a0576101008083540402835291602001916102c9565b820191905f5260205f20905b8154815290600101906020018083116102ac57829003601f168201915b505050505081526020016003820180546102e29061123b565b80601f016020809104026020016040519081016040528092919081815260200182805461030e9061123b565b80156103595780601f1061033057610100808354040283529160200191610359565b820191905f5260205f20905b81548152906001019060200180831161033c57829003601f168201915b5050509183525050600482015467ffffffffffffffff1660208201526005820154604082015260069091015463ffffffff166060909101528361039d600184611228565b815181106103ad576103ad611273565b602002602001018190525080806103c390611287565b915050610203565b505090565b5f5f6060805f5f861180156103e557505f5486105b6104235760405162461bcd60e51b815260206004820152600a6024820152691a5b9d985b1a59081a5960b21b60448201526064015b60405180910390fd5b5f868152600160208190526040909120908101546001600160a01b03166104785760405162461bcd60e51b81526020600482015260096024820152681b9bdd08199bdd5b9960ba1b604482015260640161041a565b8054600182015460048301546002840180546001600160a01b03909316929091600386019167ffffffffffffffff9091169083906104b59061123b565b80601f01602080910402602001604051908101604052809291908181526020018280546104e19061123b565b801561052c5780601f106105035761010080835404028352916020019161052c565b820191905f5260205f20905b81548152906001019060200180831161050f57829003601f168201915b5050505050925081805461053f9061123b565b80601f016020809104026020016040519081016040528092919081815260200182805461056b9061123b565b80156105b65780601f1061058d576101008083540402835291602001916105b6565b820191905f5260205f20905b81548152906001019060200180831161059957829003601f168201915b50505050509150955095509550955095505091939590929450565b5f5f821180156105e157505f5482105b61061a5760405162461bcd60e51b815260206004820152600a6024820152691a5b9d985b1a59081a5960b21b604482015260640161041a565b5f828152600160208190526040909120908101546001600160a01b031661066f5760405162461bcd60e51b81526020600482015260096024820152681b9bdd08199bdd5b9960ba1b604482015260640161041a565b6005015492915050565b5f5f8211801561068957505f5482105b6106c25760405162461bcd60e51b815260206004820152600a6024820152691a5b9d985b1a59081a5960b21b604482015260640161041a565b5f828152600160208190526040909120908101546001600160a01b03166107175760405162461bcd60e51b81526020600482015260096024820152681b9bdd08199bdd5b9960ba1b604482015260640161041a565b6006015463ffffffff1692915050565b5f8411801561073657505f5484105b61076f5760405162461bcd60e51b815260206004820152600a6024820152691a5b9d985b1a59081a5960b21b604482015260640161041a565b5f848152600160208190526040909120908101546001600160a01b03166107c45760405162461bcd60e51b81526020600482015260096024820152681b9bdd08199bdd5b9960ba1b604482015260640161041a565b5f6108048585858080601f0160208091040260200160405190810160405280939291908181526020018383808284375f92019190915250610b0592505050565b9050610814826005015482610b1b565b6005830181905561082490610b49565b506005820154600183015461084291906001600160a01b0316610b58565b50610851826005015433610b6a565b5060068201805463ffffffff8082166001011663ffffffff19909116179055604051339087907f183c92bcc6e41c11e3f74b7b001484bfad9d885f92ff597a4ddac27373894b99905f90a3505050505050565b5f5f83511180156108b7575060c8835111155b6109035760405162461bcd60e51b815260206004820152601660248201527f696e76616c6964206d657373616765206c656e67746800000000000000000000604482015260640161041a565b6040825111156109555760405162461bcd60e51b815260206004820152601460248201527f696e76616c696420616c696173206c656e677468000000000000000000000000604482015260640161041a565b5f8054908061096383611287565b9190505590505f6109735f610b75565b6040805160e081018252848152336020808301918252828401898152606084018990524267ffffffffffffffff16608085015260a084018690525f60c085018190528881526001928390529490942083518155915190820180547fffffffffffffffffffffffff0000000000000000000000000000000000000000166001600160a01b039092169190911790559151929350916002820190610a1590826112eb565b5060608201516003820190610a2a90826112eb565b50608082015160048201805467ffffffffffffffff191667ffffffffffffffff90921691909117905560a082015160058083019190915560c0909201516006909101805463ffffffff191663ffffffff9092169190911790555f8381526001602052604090200154610a9b90610b49565b505f82815260016020526040902060050154610ab79033610b58565b50336001600160a01b0316827f993e07c494c4e26e1eac56e043bfaabcdec11c9bd4fa4e9e01cc70c5dfcdf09e858742604051610af6939291906113a6565b60405180910390a35092915050565b5f610b1283836004610b87565b90505b92915050565b5f82610b2d57610b2a5f610b75565b92505b81610b3e57610b3b5f610b75565b91505b610b1283835f610ca7565b5f610b548230610d87565b5090565b5f610b638383610d87565b5090919050565b5f610b638383610e0e565b5f610b158263ffffffff166004610e67565b7f9e7b61f58c47dc699ac88507c4f5bb9f121c03808c5676a8078fe583e46497015460405163196d0b9b60e01b81525f917f9e7b61f58c47dc699ac88507c4f5bb9f121c03808c5676a8078fe583e4649700916001600160a01b039091169063196d0b9b90610c00908890339089908990600401611405565b6020604051808303815f875af1158015610c1c573d5f5f3e3d5ffd5b505050506040513d601f19601f82011682018060405250810190610c409190611444565b8154604051630f8e573b60e21b8152600481018390523360248201529193506001600160a01b031690633e395cec906044015f604051808303815f87803b158015610c89575f5ffd5b505af1158015610c9b573d5f5f3e3d5ffd5b50505050509392505050565b5f5f8215610cba5750600160f81b610cbd565b505f5b5f7f9e7b61f58c47dc699ac88507c4f5bb9f121c03808c5676a8078fe583e4649700600181015460405163022f65e760e31b815260048101899052602481018890527fff00000000000000000000000000000000000000000000000000000000000000851660448201529192506001600160a01b03169063117b2f38906064016020604051808303815f875af1158015610d59573d5f5f3e3d5ffd5b505050506040513d601f19601f82011682018060405250810190610d7d9190611444565b9695505050505050565b7f9e7b61f58c47dc699ac88507c4f5bb9f121c03808c5676a8078fe583e46497008054604051635ca4b5b160e11b8152600481018590526001600160a01b0384811660248301529091169063b9496b62906044015b5f604051808303815f87803b158015610df3575f5ffd5b505af1158015610e05573d5f5f3e3d5ffd5b50505050505050565b7f9e7b61f58c47dc699ac88507c4f5bb9f121c03808c5676a8078fe583e46497008054604051630f8e573b60e21b8152600481018590526001600160a01b03848116602483015290911690633e395cec90604401610ddc565b7f9e7b61f58c47dc699ac88507c4f5bb9f121c03808c5676a8078fe583e464970154604051639cd07acb60e01b81525f917f9e7b61f58c47dc699ac88507c4f5bb9f121c03808c5676a8078fe583e4649700916001600160a01b0390911690639cd07acb90610edc908790879060040161145b565b6020604051808303815f875af1158015610ef8573d5f5f3e3d5ffd5b505050506040513d601f19601f82011682018060405250810190610f1c9190611444565b949350505050565b5f81518084528060208401602086015e5f602082860101526020601f19601f83011685010191505092915050565b5f602082016020835280845180835260408501915060408160051b8601019250602086015f5b8281101561101b57603f198786030184528151805186526001600160a01b036020820151166020870152604081015160e06040880152610fbb60e0880182610f24565b905060608201518782036060890152610fd48282610f24565b60808481015167ffffffffffffffff16908a015260a080850151908a015260c09384015163ffffffff16939098019290925250506020938401939190910190600101610f78565b50929695505050505050565b5f60208284031215611037575f5ffd5b5035919050565b8581526001600160a01b038516602082015260a060408201525f61106560a0830186610f24565b82810360608401526110778186610f24565b91505067ffffffffffffffff831660808301529695505050505050565b5f5f5f5f606085870312156110a7575f5ffd5b8435935060208501359250604085013567ffffffffffffffff8111156110cb575f5ffd5b8501601f810187136110db575f5ffd5b803567ffffffffffffffff8111156110f1575f5ffd5b876020828401011115611102575f5ffd5b949793965060200194505050565b634e487b7160e01b5f52604160045260245ffd5b5f82601f830112611133575f5ffd5b813567ffffffffffffffff81111561114d5761114d611110565b604051601f8201601f19908116603f0116810167ffffffffffffffff8111828210171561117c5761117c611110565b604052818152838201602001851015611193575f5ffd5b816020850160208301375f918101602001919091529392505050565b5f5f604083850312156111c0575f5ffd5b823567ffffffffffffffff8111156111d6575f5ffd5b6111e285828601611124565b925050602083013567ffffffffffffffff8111156111fe575f5ffd5b61120a85828601611124565b9150509250929050565b634e487b7160e01b5f52601160045260245ffd5b81810381811115610b1557610b15611214565b600181811c9082168061124f57607f821691505b60208210810361126d57634e487b7160e01b5f52602260045260245ffd5b50919050565b634e487b7160e01b5f52603260045260245ffd5b5f6001820161129857611298611214565b5060010190565b601f8211156112e657805f5260205f20601f840160051c810160208510156112c45750805b601f840160051c820191505b818110156112e3575f81556001016112d0565b50505b505050565b815167ffffffffffffffff81111561130557611305611110565b61131981611313845461123b565b8461129f565b6020601f82116001811461134b575f83156113345750848201515b5f19600385901b1c1916600184901b1784556112e3565b5f84815260208120601f198516915b8281101561137a578785015182556020948501946001909201910161135a565b508482101561139757868401515f19600387901b60f8161c191681555b50505050600190811b01905550565b606081525f6113b86060830186610f24565b82810360208401526113ca8186610f24565b91505067ffffffffffffffff83166040830152949350505050565b6054811061140157634e487b7160e01b5f52602160045260245ffd5b9052565b8481526001600160a01b0384166020820152608060408201525f61142c6080830185610f24565b905061143b60608301846113e5565b95945050505050565b5f60208284031215611454575f5ffd5b5051919050565b8281526040810161146f60208301846113e5565b939250505056fea164736f6c634300081b000a",
  "linkReferences": {},
  "deployedLinkReferences": {}
}